{
  "contractName": "OwnershipRegistrationContract",
  "abi": [
    {
      "anonymous": false,
      "inputs": [
        {
          "indexed": true,
          "internalType": "bytes32",
          "name": "dataId",
          "type": "bytes32"
        },
        {
          "indexed": true,
          "internalType": "address",
          "name": "owner",
          "type": "address"
        },
        {
          "indexed": false,
          "internalType": "bytes32",
          "name": "dataHash",
          "type": "bytes32"
        },
        {
          "indexed": false,
          "internalType": "string",
          "name": "metadata",
          "type": "string"
        },
        {
          "indexed": false,
          "internalType": "uint256",
          "name": "timestamp",
          "type": "uint256"
        }
      ],
      "name": "DataRegistered",
      "type": "event"
    },
    {
      "anonymous": false,
      "inputs": [
        {
          "indexed": true,
          "internalType": "bytes32",
          "name": "dataId",
          "type": "bytes32"
        },
        {
          "indexed": true,
          "internalType": "address",
          "name": "from",
          "type": "address"
        },
        {
          "indexed": true,
          "internalType": "address",
          "name": "to",
          "type": "address"
        }
      ],
      "name": "OwnershipTransferred",
      "type": "event"
    },
    {
      "inputs": [
        {
          "internalType": "bytes32",
          "name": "",
          "type": "bytes32"
        }
      ],
      "name": "dataIdToHash",
      "outputs": [
        {
          "internalType": "bytes32",
          "name": "",
          "type": "bytes32"
        }
      ],
      "stateMutability": "view",
      "type": "function",
      "constant": true
    },
    {
      "inputs": [
        {
          "internalType": "bytes32",
          "name": "",
          "type": "bytes32"
        }
      ],
      "name": "dataResources",
      "outputs": [
        {
          "internalType": "bytes32",
          "name": "dataHash",
          "type": "bytes32"
        },
        {
          "internalType": "string",
          "name": "metadata",
          "type": "string"
        },
        {
          "internalType": "string",
          "name": "watermarkFeatures",
          "type": "string"
        },
        {
          "internalType": "address",
          "name": "owner",
          "type": "address"
        },
        {
          "internalType": "uint256",
          "name": "registrationTime",
          "type": "uint256"
        },
        {
          "internalType": "bytes32",
          "name": "dataId",
          "type": "bytes32"
        },
        {
          "internalType": "bool",
          "name": "isRegistered",
          "type": "bool"
        }
      ],
      "stateMutability": "view",
      "type": "function",
      "constant": true
    },
    {
      "inputs": [
        {
          "internalType": "bytes32",
          "name": "",
          "type": "bytes32"
        }
      ],
      "name": "hashToDataId",
      "outputs": [
        {
          "internalType": "bytes32",
          "name": "",
          "type": "bytes32"
        }
      ],
      "stateMutability": "view",
      "type": "function",
      "constant": true
    },
    {
      "inputs": [
        {
          "internalType": "address",
          "name": "",
          "type": "address"
        },
        {
          "internalType": "uint256",
          "name": "",
          "type": "uint256"
        }
      ],
      "name": "ownerDataIds",
      "outputs": [
        {
          "internalType": "bytes32",
          "name": "",
          "type": "bytes32"
        }
      ],
      "stateMutability": "view",
      "type": "function",
      "constant": true
    },
    {
      "inputs": [
        {
          "internalType": "address",
          "name": "",
          "type": "address"
        },
        {
          "internalType": "bytes32",
          "name": "",
          "type": "bytes32"
        }
      ],
      "name": "ownerToDataHashes",
      "outputs": [
        {
          "internalType": "bool",
          "name": "",
          "type": "bool"
        }
      ],
      "stateMutability": "view",
      "type": "function",
      "constant": true
    },
    {
      "inputs": [
        {
          "internalType": "bytes32",
          "name": "_dataHash",
          "type": "bytes32"
        },
        {
          "internalType": "string",
          "name": "_metadata",
          "type": "string"
        },
        {
          "internalType": "string",
          "name": "_watermarkFeatures",
          "type": "string"
        }
      ],
      "name": "registerDataResource",
      "outputs": [
        {
          "internalType": "bytes32",
          "name": "",
          "type": "bytes32"
        }
      ],
      "stateMutability": "nonpayable",
      "type": "function"
    },
    {
      "inputs": [
        {
          "internalType": "bytes32",
          "name": "_dataHash",
          "type": "bytes32"
        }
      ],
      "name": "getDataResourceByHash",
      "outputs": [
        {
          "components": [
            {
              "internalType": "bytes32",
              "name": "dataHash",
              "type": "bytes32"
            },
            {
              "internalType": "string",
              "name": "metadata",
              "type": "string"
            },
            {
              "internalType": "string",
              "name": "watermarkFeatures",
              "type": "string"
            },
            {
              "internalType": "address",
              "name": "owner",
              "type": "address"
            },
            {
              "internalType": "uint256",
              "name": "registrationTime",
              "type": "uint256"
            },
            {
              "internalType": "bytes32",
              "name": "dataId",
              "type": "bytes32"
            },
            {
              "internalType": "bool",
              "name": "isRegistered",
              "type": "bool"
            }
          ],
          "internalType": "struct OwnershipRegistrationContract.DataResource",
          "name": "",
          "type": "tuple"
        }
      ],
      "stateMutability": "view",
      "type": "function",
      "constant": true
    },
    {
      "inputs": [
        {
          "internalType": "bytes32",
          "name": "_dataHash",
          "type": "bytes32"
        }
      ],
      "name": "isDataRegistered",
      "outputs": [
        {
          "internalType": "bool",
          "name": "",
          "type": "bool"
        }
      ],
      "stateMutability": "view",
      "type": "function",
      "constant": true
    },
    {
      "inputs": [
        {
          "internalType": "address",
          "name": "_owner",
          "type": "address"
        }
      ],
      "name": "getOwnerDataHashes",
      "outputs": [
        {
          "internalType": "bytes32[]",
          "name": "",
          "type": "bytes32[]"
        }
      ],
      "stateMutability": "view",
      "type": "function",
      "constant": true
    },
    {
      "inputs": [
        {
          "internalType": "bytes32",
          "name": "_dataHash",
          "type": "bytes32"
        },
        {
          "internalType": "address",
          "name": "_checkAddress",
          "type": "address"
        }
      ],
      "name": "verifyOwnershipByHash",
      "outputs": [
        {
          "internalType": "bool",
          "name": "",
          "type": "bool"
        }
      ],
      "stateMutability": "view",
      "type": "function",
      "constant": true
    },
    {
      "inputs": [
        {
          "internalType": "bytes32",
          "name": "_dataId",
          "type": "bytes32"
        },
        {
          "internalType": "address",
          "name": "_newOwner",
          "type": "address"
        }
      ],
      "name": "transferOwnership",
      "outputs": [],
      "stateMutability": "nonpayable",
      "type": "function"
    },
    {
      "inputs": [
        {
          "internalType": "bytes32",
          "name": "_dataId",
          "type": "bytes32"
        },
        {
          "internalType": "address",
          "name": "_checkAddress",
          "type": "address"
        }
      ],
      "name": "verifyOwnership",
      "outputs": [
        {
          "internalType": "bool",
          "name": "",
          "type": "bool"
        }
      ],
      "stateMutability": "view",
      "type": "function",
      "constant": true
    },
    {
      "inputs": [
        {
          "internalType": "bytes32",
          "name": "_dataId",
          "type": "bytes32"
        }
      ],
      "name": "getDataResource",
      "outputs": [
        {
          "components": [
            {
              "internalType": "bytes32",
              "name": "dataHash",
              "type": "bytes32"
            },
            {
              "internalType": "string",
              "name": "metadata",
              "type": "string"
            },
            {
              "internalType": "string",
              "name": "watermarkFeatures",
              "type": "string"
            },
            {
              "internalType": "address",
              "name": "owner",
              "type": "address"
            },
            {
              "internalType": "uint256",
              "name": "registrationTime",
              "type": "uint256"
            },
            {
              "internalType": "bytes32",
              "name": "dataId",
              "type": "bytes32"
            },
            {
              "internalType": "bool",
              "name": "isRegistered",
              "type": "bool"
            }
          ],
          "internalType": "struct OwnershipRegistrationContract.DataResource",
          "name": "",
          "type": "tuple"
        }
      ],
      "stateMutability": "view",
      "type": "function",
      "constant": true
    },
    {
      "inputs": [
        {
          "internalType": "bytes32",
          "name": "_dataHash",
          "type": "bytes32"
        }
      ],
      "name": "getDataIdByHash",
      "outputs": [
        {
          "internalType": "bytes32",
          "name": "",
          "type": "bytes32"
        }
      ],
      "stateMutability": "view",
      "type": "function",
      "constant": true
    }
  ],
  "bytecode": "0x608060405234801561001057600080fd5b506112b7806100206000396000f3fe608060405234801561001057600080fd5b50600436106100ea5760003560e01c80637162c2891161008c578063b3ebddb211610066578063b3ebddb21461023f578063dfcbcee51461026d578063e9e924c414610293578063ef5d6bbb146102a657600080fd5b80637162c289146101ea578063775c4b551461020c5780639d7b85851461022c57600080fd5b806320199624116100c8578063201996241461016557806341dd06c5146101785780634d41f49b14610198578063545041b3146101ca57600080fd5b80630152b5a2146100ef578063077e9b9a1461012257806314a8c67a14610145575b600080fd5b61010f6100fd366004610d2d565b60009081526002602052604090205490565b6040519081526020015b60405180910390f35b610135610130366004610d62565b6102bb565b6040519015158152602001610119565b610158610153366004610d2d565b610302565b6040516101199190610dde565b61010f610173366004610e61565b6104f4565b61010f610186366004610d2d565b60026020526000908152604090205481565b6101356101a6366004610d62565b600091825260208290526040909120600301546001600160a01b0391821691161490565b6101dd6101d8366004610e8b565b610525565b6040516101199190610ead565b6101356101f8366004610d2d565b600090815260026020526040902054151590565b61010f61021a366004610d2d565b60036020526000908152604090205481565b61015861023a366004610d2d565b610645565b61013561024d366004610e61565b600460209081526000928352604080842090915290825290205460ff1681565b61028061027b366004610d2d565b61082e565b6040516101199796959493929190610ef1565b61010f6102a1366004610ff1565b610987565b6102b96102b4366004610d62565b610bbc565b005b600082815260026020526040812054806102d95760009150506102fc565b6000908152602081905260409020600301546001600160a01b0383811691161490505b92915050565b6040805160e0810182526000808252606060208084018290528385018290529083018290526080830182905260a0830182905260c08301829052848252819052919091206006015460ff166103725760405162461bcd60e51b81526004016103699061105e565b60405180910390fd5b60008281526020818152604091829020825160e081019093528054835260018101805491928401916103a39061108b565b80601f01602080910402602001604051908101604052809291908181526020018280546103cf9061108b565b801561041c5780601f106103f15761010080835404028352916020019161041c565b820191906000526020600020905b8154815290600101906020018083116103ff57829003601f168201915b505050505081526020016002820180546104359061108b565b80601f01602080910402602001604051908101604052809291908181526020018280546104619061108b565b80156104ae5780601f10610483576101008083540402835291602001916104ae565b820191906000526020600020905b81548152906001019060200180831161049157829003601f168201915b505050918352505060038201546001600160a01b03166020820152600482015460408201526005820154606082015260069091015460ff16151560809091015292915050565b6001602052816000526040600020818154811061051057600080fd5b90600052602060002001600091509150505481565b6001600160a01b038116600090815260016020908152604080832080548251818502810185019093528083526060949383018282801561058457602002820191906000526020600020905b815481526020019060010190808311610570575b505050505090506000815167ffffffffffffffff8111156105a7576105a7610f4e565b6040519080825280602002602001820160405280156105d0578160200160208202803683370190505b50905060005b825181101561063d576000808483815181106105f4576105f46110c5565b6020026020010151815260200190815260200160002060000154828281518110610620576106206110c5565b602090810291909101015280610635816110db565b9150506105d6565b509392505050565b6040805160e08101825260008082526060602083018190529282018390529181018290526080810182905260a0810182905260c0810191909152600082815260026020526040902054806106ab5760405162461bcd60e51b81526004016103699061105e565b60008181526020818152604091829020825160e081019093528054835260018101805491928401916106dc9061108b565b80601f01602080910402602001604051908101604052809291908181526020018280546107089061108b565b80156107555780601f1061072a57610100808354040283529160200191610755565b820191906000526020600020905b81548152906001019060200180831161073857829003601f168201915b5050505050815260200160028201805461076e9061108b565b80601f016020809104026020016040519081016040528092919081815260200182805461079a9061108b565b80156107e75780601f106107bc576101008083540402835291602001916107e7565b820191906000526020600020905b8154815290600101906020018083116107ca57829003601f168201915b505050918352505060038201546001600160a01b03166020820152600482015460408201526005820154606082015260069091015460ff1615156080909101529392505050565b600060208190529081526040902080546001820180549192916108509061108b565b80601f016020809104026020016040519081016040528092919081815260200182805461087c9061108b565b80156108c95780601f1061089e576101008083540402835291602001916108c9565b820191906000526020600020905b8154815290600101906020018083116108ac57829003601f168201915b5050505050908060020180546108de9061108b565b80601f016020809104026020016040519081016040528092919081815260200182805461090a9061108b565b80156109575780601f1061092c57610100808354040283529160200191610957565b820191906000526020600020905b81548152906001019060200180831161093a57829003601f168201915b5050505060038301546004840154600585015460069095015493946001600160a01b039092169390925060ff1687565b6000836109ca5760405162461bcd60e51b8152602060048201526011602482015270092dcecc2d8d2c840c8c2e8c240d0c2e6d607b1b6044820152606401610369565b60008481526002602052604090205415610a265760405162461bcd60e51b815260206004820152601760248201527f4461746120616c726561647920726567697374657265640000000000000000006044820152606401610369565b600084844233604051602001610a3f9493929190611102565b60408051601f19818403018152828252805160209182012060e08401835288845283820188815284840188905233606086015242608086015260a08501829052600160c08601819052600083815293849052939092208451815591519094508392820190610aad9082611198565b5060408201516002820190610ac29082611198565b506060820151600380830180546001600160a01b039093166001600160a01b031990931692909217909155608083015160048084019190915560a0840151600584015560c0909301516006909201805492151560ff1993841617905560008981526002602090815260408083208890558783529281528282208b9055338083529481528282208b835281528282208054909416600190811790945584825283815282822080549485018155825290209091018490555183907fe4cb136b24fdedb9609a70da1dd4fed5d8e1ba672627bb6a5ea087256a1deb1e90610bab908a908a904290611258565b60405180910390a350949350505050565b60008281526020819052604090206006015460ff16610bed5760405162461bcd60e51b81526004016103699061105e565b6000828152602081905260409020600301546001600160a01b03163314610c425760405162461bcd60e51b81526020600482015260096024820152682737ba1037bbb732b960b91b6044820152606401610369565b6001600160a01b038116610c8c5760405162461bcd60e51b815260206004820152601160248201527024b73b30b634b2103732bb9037bbb732b960791b6044820152606401610369565b60008281526020818152604080832080543380865260048086528487208388528652848720805460ff199081169091556001600160a01b03891680895291875285882084895287528588208054909116600117905588875294869052600390920180546001600160a01b0319168517905591519193909186917f0b659dccc8eb950324170e8d9598af5ee04ee070883eb28651a96788721fbf8391a4505050565b600060208284031215610d3f57600080fd5b5035919050565b80356001600160a01b0381168114610d5d57600080fd5b919050565b60008060408385031215610d7557600080fd5b82359150610d8560208401610d46565b90509250929050565b60005b83811015610da9578181015183820152602001610d91565b50506000910152565b60008151808452610dca816020860160208601610d8e565b601f01601f19169290920160200192915050565b60208152815160208201526000602083015160e06040840152610e05610100840182610db2565b90506040840151601f19848303016060850152610e228282610db2565b91505060018060a01b036060850151166080840152608084015160a084015260a084015160c084015260c0840151151560e08401528091505092915050565b60008060408385031215610e7457600080fd5b610e7d83610d46565b946020939093013593505050565b600060208284031215610e9d57600080fd5b610ea682610d46565b9392505050565b6020808252825182820181905260009190848201906040850190845b81811015610ee557835183529284019291840191600101610ec9565b50909695505050505050565b87815260e060208201526000610f0a60e0830189610db2565b8281036040840152610f1c8189610db2565b6001600160a01b039790971660608401525050608081019390935260a0830191909152151560c0909101529392505050565b634e487b7160e01b600052604160045260246000fd5b600082601f830112610f7557600080fd5b813567ffffffffffffffff80821115610f9057610f90610f4e565b604051601f8301601f19908116603f01168101908282118183101715610fb857610fb8610f4e565b81604052838152866020858801011115610fd157600080fd5b836020870160208301376000602085830101528094505050505092915050565b60008060006060848603121561100657600080fd5b83359250602084013567ffffffffffffffff8082111561102557600080fd5b61103187838801610f64565b9350604086013591508082111561104757600080fd5b5061105486828701610f64565b9150509250925092565b60208082526013908201527211185d18481b9bdd081c9959da5cdd195c9959606a1b604082015260600190565b600181811c9082168061109f57607f821691505b6020821081036110bf57634e487b7160e01b600052602260045260246000fd5b50919050565b634e487b7160e01b600052603260045260246000fd5b6000600182016110fb57634e487b7160e01b600052601160045260246000fd5b5060010190565b8481526000845161111a816020850160208901610d8e565b602092019182019390935260609190911b6bffffffffffffffffffffffff191660408201526054019392505050565b601f82111561119357600081815260208120601f850160051c810160208610156111705750805b601f850160051c820191505b8181101561118f5782815560010161117c565b5050505b505050565b815167ffffffffffffffff8111156111b2576111b2610f4e565b6111c6816111c0845461108b565b84611149565b602080601f8311600181146111fb57600084156111e35750858301515b600019600386901b1c1916600185901b17855561118f565b600085815260208120601f198616915b8281101561122a5788860151825594840194600190910190840161120b565b50858210156112485787850151600019600388901b60f8161c191681555b5050505050600190811b01905550565b8381526060602082015260006112716060830185610db2565b905082604083015294935050505056fea26469706673582212201607487dc5166e601b4ab8f01f01cd72b83d245e1c8edf0d12ba6fbf16fe2c2664736f6c63430008130033",
  "immutableReferences": {},
  "source": "// SPDX-License-Identifier: MIT\r\npragma solidity ^0.8.19;\r\n\r\ncontract OwnershipRegistrationContract {\r\n    struct DataResource {\r\n        bytes32 dataHash;\r\n        string metadata;\r\n        string watermarkFeatures;\r\n        address owner;\r\n        uint256 registrationTime;\r\n        bytes32 dataId;\r\n        bool isRegistered;\r\n    }\r\n\r\n    mapping(bytes32 => DataResource) public dataResources;\r\n    mapping(address => bytes32[]) public ownerDataIds;\r\n    mapping(bytes32 => bytes32) public hashToDataId;\r\n    \r\n    // ID\r\n    mapping(bytes32 => bytes32) public dataIdToHash;\r\n    \r\n    // \r\n    mapping(address => mapping(bytes32 => bool)) public ownerToDataHashes;\r\n\r\n    event DataRegistered(\r\n        bytes32 indexed dataId,\r\n        address indexed owner,\r\n        bytes32 dataHash,\r\n        string metadata,\r\n        uint256 timestamp\r\n    );\r\n\r\n    event OwnershipTransferred(\r\n        bytes32 indexed dataId,\r\n        address indexed from,\r\n        address indexed to\r\n    );\r\n\r\n    function registerDataResource(\r\n        bytes32 _dataHash,\r\n        string memory _metadata,\r\n        string memory _watermarkFeatures\r\n    ) external returns (bytes32) {\r\n        require(_dataHash != bytes32(0), \"Invalid data hash\");\r\n        require(hashToDataId[_dataHash] == bytes32(0), \"Data already registered\");\r\n\r\n        bytes32 dataId = keccak256(\r\n            abi.encodePacked(_dataHash, _metadata, block.timestamp, msg.sender)\r\n        );\r\n\r\n        DataResource memory newResource = DataResource({\r\n            dataHash: _dataHash,\r\n            metadata: _metadata,\r\n            watermarkFeatures: _watermarkFeatures,\r\n            owner: msg.sender,\r\n            registrationTime: block.timestamp,\r\n            dataId: dataId,\r\n            isRegistered: true\r\n        });\r\n\r\n        dataResources[dataId] = newResource;\r\n        hashToDataId[_dataHash] = dataId;\r\n        dataIdToHash[dataId] = _dataHash; // \r\n        ownerToDataHashes[msg.sender][_dataHash] = true; // \r\n        ownerDataIds[msg.sender].push(dataId);\r\n\r\n        emit DataRegistered(\r\n            dataId,\r\n            msg.sender,\r\n            _dataHash,\r\n            _metadata,\r\n            block.timestamp\r\n        );\r\n\r\n        return dataId;\r\n    }\r\n\r\n    // \r\n    function getDataResourceByHash(bytes32 _dataHash) \r\n        external \r\n        view \r\n        returns (DataResource memory) \r\n    {\r\n        bytes32 dataId = hashToDataId[_dataHash];\r\n        require(dataId != bytes32(0), \"Data not registered\");\r\n        return dataResources[dataId];\r\n    }\r\n\r\n    // \r\n    function isDataRegistered(bytes32 _dataHash) external view returns (bool) {\r\n        return hashToDataId[_dataHash] != bytes32(0);\r\n    }\r\n\r\n    // \r\n    function getOwnerDataHashes(address _owner) \r\n        external \r\n        view \r\n        returns (bytes32[] memory) \r\n    {\r\n        bytes32[] memory dataIds = ownerDataIds[_owner];\r\n        bytes32[] memory hashes = new bytes32[](dataIds.length);\r\n        \r\n        for (uint i = 0; i < dataIds.length; i++) {\r\n            hashes[i] = dataResources[dataIds[i]].dataHash;\r\n        }\r\n        \r\n        return hashes;\r\n    }\r\n\r\n    // \r\n    function verifyOwnershipByHash(bytes32 _dataHash, address _checkAddress)\r\n        external\r\n        view\r\n        returns (bool)\r\n    {\r\n        bytes32 dataId = hashToDataId[_dataHash];\r\n        if (dataId == bytes32(0)) {\r\n            return false;\r\n        }\r\n        return dataResources[dataId].owner == _checkAddress;\r\n    }\r\n\r\n    function transferOwnership(bytes32 _dataId, address _newOwner) external {\r\n        require(dataResources[_dataId].isRegistered, \"Data not registered\");\r\n        require(dataResources[_dataId].owner == msg.sender, \"Not owner\");\r\n        require(_newOwner != address(0), \"Invalid new owner\");\r\n        \r\n        // \r\n        bytes32 dataHash = dataResources[_dataId].dataHash;\r\n        ownerToDataHashes[msg.sender][dataHash] = false;\r\n        ownerToDataHashes[_newOwner][dataHash] = true;\r\n        \r\n        dataResources[_dataId].owner = _newOwner;\r\n        emit OwnershipTransferred(_dataId, msg.sender, _newOwner);\r\n    }\r\n\r\n    function verifyOwnership(bytes32 _dataId, address _checkAddress)\r\n        external\r\n        view\r\n        returns (bool)\r\n    {\r\n        return dataResources[_dataId].owner == _checkAddress;\r\n    }\r\n\r\n    function getDataResource(bytes32 _dataId)\r\n        external\r\n        view\r\n        returns (DataResource memory)\r\n    {\r\n        require(dataResources[_dataId].isRegistered, \"Data not registered\");\r\n        return dataResources[_dataId];\r\n    }\r\n\r\n    function getDataIdByHash(bytes32 _dataHash) external view returns (bytes32) {\r\n        return hashToDataId[_dataHash];\r\n    }\r\n}",
  "sourcePath": "D:\\\\\\\\blockchain-test\\contracts\\OwnershipRegistrationContract.sol",
  "compiler": {
    "name": "solc",
    "version": "0.8.19+commit.7dd6d404.Emscripten.clang"
  },
  "schemaVersion": "3.4.16",
  "updatedAt": "2025-11-17T02:11:11.311Z",
  "networkType": "ethereum",
  "devdoc": {
    "kind": "dev",
    "methods": {},
    "version": 1
  },
  "userdoc": {
    "kind": "user",
    "methods": {},
    "version": 1
  }
}