{
  "contractName": "ProcessingRightGrantingContract",
  "abi": [
    {
      "inputs": [
        {
          "internalType": "address",
          "name": "_ownershipContractAddress",
          "type": "address"
        }
      ],
      "stateMutability": "nonpayable",
      "type": "constructor"
    },
    {
      "anonymous": false,
      "inputs": [
        {
          "indexed": true,
          "internalType": "bytes32",
          "name": "authId",
          "type": "bytes32"
        },
        {
          "indexed": true,
          "internalType": "bytes32",
          "name": "dataId",
          "type": "bytes32"
        },
        {
          "indexed": true,
          "internalType": "address",
          "name": "grantor",
          "type": "address"
        },
        {
          "indexed": false,
          "internalType": "address",
          "name": "grantee",
          "type": "address"
        },
        {
          "indexed": false,
          "internalType": "string",
          "name": "purpose",
          "type": "string"
        },
        {
          "indexed": false,
          "internalType": "uint256",
          "name": "expirationTime",
          "type": "uint256"
        }
      ],
      "name": "AuthorizationGranted",
      "type": "event"
    },
    {
      "anonymous": false,
      "inputs": [
        {
          "indexed": true,
          "internalType": "bytes32",
          "name": "authId",
          "type": "bytes32"
        },
        {
          "indexed": true,
          "internalType": "bytes32",
          "name": "dataId",
          "type": "bytes32"
        },
        {
          "indexed": true,
          "internalType": "address",
          "name": "grantor",
          "type": "address"
        }
      ],
      "name": "AuthorizationRevoked",
      "type": "event"
    },
    {
      "inputs": [
        {
          "internalType": "bytes32",
          "name": "",
          "type": "bytes32"
        }
      ],
      "name": "authorizations",
      "outputs": [
        {
          "internalType": "bytes32",
          "name": "authId",
          "type": "bytes32"
        },
        {
          "internalType": "bytes32",
          "name": "dataId",
          "type": "bytes32"
        },
        {
          "internalType": "address",
          "name": "grantor",
          "type": "address"
        },
        {
          "internalType": "address",
          "name": "grantee",
          "type": "address"
        },
        {
          "internalType": "uint256",
          "name": "grantTime",
          "type": "uint256"
        },
        {
          "internalType": "uint256",
          "name": "expirationTime",
          "type": "uint256"
        },
        {
          "internalType": "string",
          "name": "purpose",
          "type": "string"
        },
        {
          "internalType": "string",
          "name": "scope",
          "type": "string"
        },
        {
          "internalType": "string",
          "name": "constraints",
          "type": "string"
        },
        {
          "internalType": "bool",
          "name": "isValid",
          "type": "bool"
        }
      ],
      "stateMutability": "view",
      "type": "function",
      "constant": true
    },
    {
      "inputs": [
        {
          "internalType": "bytes32",
          "name": "",
          "type": "bytes32"
        },
        {
          "internalType": "uint256",
          "name": "",
          "type": "uint256"
        }
      ],
      "name": "dataAuthorizations",
      "outputs": [
        {
          "internalType": "bytes32",
          "name": "",
          "type": "bytes32"
        }
      ],
      "stateMutability": "view",
      "type": "function",
      "constant": true
    },
    {
      "inputs": [
        {
          "internalType": "address",
          "name": "",
          "type": "address"
        },
        {
          "internalType": "uint256",
          "name": "",
          "type": "uint256"
        }
      ],
      "name": "granteeAuthorizations",
      "outputs": [
        {
          "internalType": "bytes32",
          "name": "",
          "type": "bytes32"
        }
      ],
      "stateMutability": "view",
      "type": "function",
      "constant": true
    },
    {
      "inputs": [],
      "name": "ownershipContract",
      "outputs": [
        {
          "internalType": "contract OwnershipRegistrationContract",
          "name": "",
          "type": "address"
        }
      ],
      "stateMutability": "view",
      "type": "function",
      "constant": true
    },
    {
      "inputs": [
        {
          "internalType": "bytes32",
          "name": "_dataId",
          "type": "bytes32"
        },
        {
          "internalType": "address",
          "name": "_grantee",
          "type": "address"
        },
        {
          "internalType": "uint256",
          "name": "_duration",
          "type": "uint256"
        },
        {
          "internalType": "string",
          "name": "_purpose",
          "type": "string"
        },
        {
          "internalType": "string",
          "name": "_scope",
          "type": "string"
        },
        {
          "internalType": "string",
          "name": "_constraints",
          "type": "string"
        }
      ],
      "name": "grantProcessingRight",
      "outputs": [
        {
          "internalType": "bytes32",
          "name": "",
          "type": "bytes32"
        }
      ],
      "stateMutability": "nonpayable",
      "type": "function"
    },
    {
      "inputs": [
        {
          "internalType": "bytes32",
          "name": "_authId",
          "type": "bytes32"
        }
      ],
      "name": "revokeAuthorization",
      "outputs": [],
      "stateMutability": "nonpayable",
      "type": "function"
    },
    {
      "inputs": [
        {
          "internalType": "bytes32",
          "name": "_dataId",
          "type": "bytes32"
        },
        {
          "internalType": "address",
          "name": "_grantee",
          "type": "address"
        }
      ],
      "name": "verifyAuthorization",
      "outputs": [
        {
          "internalType": "bool",
          "name": "",
          "type": "bool"
        }
      ],
      "stateMutability": "view",
      "type": "function",
      "constant": true
    },
    {
      "inputs": [
        {
          "internalType": "bytes32",
          "name": "_dataId",
          "type": "bytes32"
        }
      ],
      "name": "getActiveAuthorizations",
      "outputs": [
        {
          "components": [
            {
              "internalType": "bytes32",
              "name": "authId",
              "type": "bytes32"
            },
            {
              "internalType": "bytes32",
              "name": "dataId",
              "type": "bytes32"
            },
            {
              "internalType": "address",
              "name": "grantor",
              "type": "address"
            },
            {
              "internalType": "address",
              "name": "grantee",
              "type": "address"
            },
            {
              "internalType": "uint256",
              "name": "grantTime",
              "type": "uint256"
            },
            {
              "internalType": "uint256",
              "name": "expirationTime",
              "type": "uint256"
            },
            {
              "internalType": "string",
              "name": "purpose",
              "type": "string"
            },
            {
              "internalType": "string",
              "name": "scope",
              "type": "string"
            },
            {
              "internalType": "string",
              "name": "constraints",
              "type": "string"
            },
            {
              "internalType": "bool",
              "name": "isValid",
              "type": "bool"
            }
          ],
          "internalType": "struct ProcessingRightGrantingContract.Authorization[]",
          "name": "",
          "type": "tuple[]"
        }
      ],
      "stateMutability": "view",
      "type": "function",
      "constant": true
    }
  ],
  "bytecode": "0x608060405234801561001057600080fd5b5060405161166138038061166183398101604081905261002f91610054565b600080546001600160a01b0319166001600160a01b0392909216919091179055610084565b60006020828403121561006657600080fd5b81516001600160a01b038116811461007d57600080fd5b9392505050565b6115ce806100936000396000f3fe608060405234801561001057600080fd5b50600436106100885760003560e01c8063d353b2b91161005b578063d353b2b914610115578063e0f3a16614610136578063e8d7d5eb14610149578063f0cbe8ca1461017257600080fd5b8063080fd61c1461008d5780631269debc146100bd578063154ca464146100dd5780633c633a2114610100575b600080fd5b6000546100a0906001600160a01b031681565b6040516001600160a01b0390911681526020015b60405180910390f35b6100d06100cb366004610fc3565b610185565b6040516100b49190611022565b6100f06100eb366004611148565b6105e8565b60405190151581526020016100b4565b61011361010e366004610fc3565b610904565b005b610128610123366004611174565b610a21565b6040519081526020016100b4565b61012861014436600461119e565b610a52565b61015c610157366004610fc3565b610a6e565b6040516100b49a999897969594939291906111c0565b6101286101803660046112ef565b610c67565b60008181526002602090815260408083208054825181850281018501909352808352606094938301828280156101da57602002820191906000526020600020905b8154815260200190600101908083116101c6575b505050505090506000805b825181101561028457600160008483815181106102045761020461139a565b60209081029190910181015182528101919091526040016000206009015460ff16801561025f575042600160008584815181106102435761024361139a565b6020026020010151815260200190815260200160002060050154115b15610272578161026e816113c6565b9250505b8061027c816113c6565b9150506101e5565b5060008167ffffffffffffffff8111156102a0576102a061124c565b60405190808252806020026020018201604052801561031e57816020015b60408051610140810182526000808252602080830182905292820181905260608083018290526080830182905260a0830182905260c0830181905260e0830181905261010083015261012082015282526000199092019101816102be5790505b5090506000805b84518110156105dd576000600160008784815181106103465761034661139a565b60209081029190910181015182528181019290925260409081016000208151610140810183528154815260018201549381019390935260028101546001600160a01b03908116928401929092526003810154909116606083015260048101546080830152600581015460a083015260068101805460c0840191906103c9906113df565b80601f01602080910402602001604051908101604052809291908181526020018280546103f5906113df565b80156104425780601f1061041757610100808354040283529160200191610442565b820191906000526020600020905b81548152906001019060200180831161042557829003601f168201915b5050505050815260200160078201805461045b906113df565b80601f0160208091040260200160405190810160405280929190818152602001828054610487906113df565b80156104d45780601f106104a9576101008083540402835291602001916104d4565b820191906000526020600020905b8154815290600101906020018083116104b757829003601f168201915b505050505081526020016008820180546104ed906113df565b80601f0160208091040260200160405190810160405280929190818152602001828054610519906113df565b80156105665780601f1061053b57610100808354040283529160200191610566565b820191906000526020600020905b81548152906001019060200180831161054957829003601f168201915b50505091835250506009919091015460ff16151560209091015261012081015190915080156105985750428160a00151115b156105ca57808484815181106105b0576105b061139a565b602002602001018190525082806105c6906113c6565b9350505b50806105d5816113c6565b915050610325565b509095945050505050565b60008281526002602090815260408083208054825181850281018501909352808352849383018282801561063b57602002820191906000526020600020905b815481526020019060010190808311610627575b5050505050905060005b81518110156108f7576000600160008484815181106106665761066661139a565b60209081029190910181015182528181019290925260409081016000208151610140810183528154815260018201549381019390935260028101546001600160a01b03908116928401929092526003810154909116606083015260048101546080830152600581015460a083015260068101805460c0840191906106e9906113df565b80601f0160208091040260200160405190810160405280929190818152602001828054610715906113df565b80156107625780601f1061073757610100808354040283529160200191610762565b820191906000526020600020905b81548152906001019060200180831161074557829003601f168201915b5050505050815260200160078201805461077b906113df565b80601f01602080910402602001604051908101604052809291908181526020018280546107a7906113df565b80156107f45780601f106107c9576101008083540402835291602001916107f4565b820191906000526020600020905b8154815290600101906020018083116107d757829003601f168201915b5050505050815260200160088201805461080d906113df565b80601f0160208091040260200160405190810160405280929190818152602001828054610839906113df565b80156108865780601f1061085b57610100808354040283529160200191610886565b820191906000526020600020905b81548152906001019060200180831161086957829003601f168201915b50505091835250506009919091015460ff16151560209091015260608101519091506001600160a01b0386811691161480156108c457508061012001515b80156108d35750428160a00151115b156108e457600193505050506108fe565b50806108ef816113c6565b915050610645565b5060009150505b92915050565b60008181526001602052604090206009015460ff1661096a5760405162461bcd60e51b815260206004820152601760248201527f417574686f72697a6174696f6e206e6f742076616c696400000000000000000060448201526064015b60405180910390fd5b6000818152600160205260409020600201546001600160a01b031633146109d35760405162461bcd60e51b815260206004820152601960248201527f4e6f7420617574686f72697a6174696f6e206772616e746f72000000000000006044820152606401610961565b600081815260016020819052604080832060098101805460ff19169055909101549051339284917f6572f81736317595a2f758ddcc6c2fefb8362b9ecb94d11d3480f41fe35a4c589190a450565b60036020528160005260406000208181548110610a3d57600080fd5b90600052602060002001600091509150505481565b60026020528160005260406000208181548110610a3d57600080fd5b6001602081905260009182526040909120805491810154600282015460038301546004840154600585015460068601805495966001600160a01b0395861696959094169492939192610abf906113df565b80601f0160208091040260200160405190810160405280929190818152602001828054610aeb906113df565b8015610b385780601f10610b0d57610100808354040283529160200191610b38565b820191906000526020600020905b815481529060010190602001808311610b1b57829003601f168201915b505050505090806007018054610b4d906113df565b80601f0160208091040260200160405190810160405280929190818152602001828054610b79906113df565b8015610bc65780601f10610b9b57610100808354040283529160200191610bc6565b820191906000526020600020905b815481529060010190602001808311610ba957829003601f168201915b505050505090806008018054610bdb906113df565b80601f0160208091040260200160405190810160405280929190818152602001828054610c07906113df565b8015610c545780601f10610c2957610100808354040283529160200191610c54565b820191906000526020600020905b815481529060010190602001808311610c3757829003601f168201915b5050506009909301549192505060ff168a565b60008054604051634d41f49b60e01b8152600481018990523360248201526001600160a01b0390911690634d41f49b90604401602060405180830381865afa158015610cb7573d6000803e3d6000fd5b505050506040513d601f19601f82011682018060405250810190610cdb9190611419565b610d185760405162461bcd60e51b815260206004820152600e60248201526d2737ba103230ba309037bbb732b960911b6044820152606401610961565b6001600160a01b038616610d605760405162461bcd60e51b815260206004820152600f60248201526e496e76616c6964206772616e74656560881b6044820152606401610961565b60008511610da35760405162461bcd60e51b815260206004820152601060248201526f24b73b30b634b210323ab930ba34b7b760811b6044820152606401610961565b60408051602081018990526bffffffffffffffffffffffff19606089811b8216938301939093524260548301523390921b909116607482015260009060880160405160208183030381529060405280519060200120905060006040518061014001604052808381526020018a8152602001336001600160a01b03168152602001896001600160a01b031681526020014281526020018842610e449190611442565b8152602080820189905260408083018990526060808401899052600160809485018190526000888152818552839020865181559386015190840155908401516002830180546001600160a01b03199081166001600160a01b039384161790915591850151600384018054909316911617905590820151600482015560a0820151600582015560c082015191925082916006820190610ee290826114a4565b5060e08201516007820190610ef790826114a4565b506101008201516008820190610f0d90826114a4565b5061012091909101516009909101805460ff19169115159190911790556000898152600260209081526040808320805460018181018355918552838520018690556001600160a01b038c16845260038352818420805491820181558452919092200183905560a0820151905133918b9185917fe09cccc1d0025d49cf6a76d876b209881a6bd042652f210ac0de3186ee6167d691610faf918e918d9190611564565b60405180910390a450979650505050505050565b600060208284031215610fd557600080fd5b5035919050565b6000815180845260005b8181101561100257602081850181015186830182015201610fe6565b506000602082860101526020601f19601f83011685010191505092915050565b60006020808301818452808551808352604092508286019150828160051b87010184880160005b8381101561111e57603f198984030185528151805184528781015188850152868101516001600160a01b0390811688860152606080830151909116908501526080808201519085015260a0808201519085015260c08082015161014082870181905291906110b983880182610fdc565b9250505060e080830151868303828801526110d48382610fdc565b9250505061010080830151868303828801526110f08382610fdc565b9250505061012080830151925061110a8187018415159052565b509588019593505090860190600101611049565b509098975050505050505050565b80356001600160a01b038116811461114357600080fd5b919050565b6000806040838503121561115b57600080fd5b8235915061116b6020840161112c565b90509250929050565b6000806040838503121561118757600080fd5b6111908361112c565b946020939093013593505050565b600080604083850312156111b157600080fd5b50508035926020909101359150565b8a8152602081018a90526001600160a01b038981166040830152881660608201526080810187905260a0810186905261014060c0820181905260009061120883820188610fdc565b905082810360e084015261121c8187610fdc565b90508281036101008401526112318186610fdc565b9150508215156101208301529b9a5050505050505050505050565b634e487b7160e01b600052604160045260246000fd5b600082601f83011261127357600080fd5b813567ffffffffffffffff8082111561128e5761128e61124c565b604051601f8301601f19908116603f011681019082821181831017156112b6576112b661124c565b816040528381528660208588010111156112cf57600080fd5b836020870160208301376000602085830101528094505050505092915050565b60008060008060008060c0878903121561130857600080fd5b863595506113186020880161112c565b945060408701359350606087013567ffffffffffffffff8082111561133c57600080fd5b6113488a838b01611262565b9450608089013591508082111561135e57600080fd5b61136a8a838b01611262565b935060a089013591508082111561138057600080fd5b5061138d89828a01611262565b9150509295509295509295565b634e487b7160e01b600052603260045260246000fd5b634e487b7160e01b600052601160045260246000fd5b6000600182016113d8576113d86113b0565b5060010190565b600181811c908216806113f357607f821691505b60208210810361141357634e487b7160e01b600052602260045260246000fd5b50919050565b60006020828403121561142b57600080fd5b8151801515811461143b57600080fd5b9392505050565b808201808211156108fe576108fe6113b0565b601f82111561149f57600081815260208120601f850160051c8101602086101561147c5750805b601f850160051c820191505b8181101561149b57828155600101611488565b5050505b505050565b815167ffffffffffffffff8111156114be576114be61124c565b6114d2816114cc84546113df565b84611455565b602080601f83116001811461150757600084156114ef5750858301515b600019600386901b1c1916600185901b17855561149b565b600085815260208120601f198616915b8281101561153657888601518255948401946001909101908401611517565b50858210156115545787850151600019600388901b60f8161c191681555b5050505050600190811b01905550565b6001600160a01b038416815260606020820181905260009061158890830185610fdc565b905082604083015294935050505056fea26469706673582212202fc72dbb0b9d6f0f436d897dd403915c61e71de247d7a8565bb3dd3f7c3a5a4064736f6c63430008130033",
  "immutableReferences": {},
  "source": "// SPDX-License-Identifier: MIT\r\npragma solidity ^0.8.19;\r\n\r\nimport \"./OwnershipRegistrationContract.sol\";\r\n\r\ncontract ProcessingRightGrantingContract {\r\n    struct Authorization {\r\n        bytes32 authId;\r\n        bytes32 dataId;\r\n        address grantor;\r\n        address grantee;\r\n        uint256 grantTime;\r\n        uint256 expirationTime;\r\n        string purpose;\r\n        string scope;\r\n        string constraints;\r\n        bool isValid;\r\n    }\r\n    \r\n    OwnershipRegistrationContract public ownershipContract;\r\n    \r\n    mapping(bytes32 => Authorization) public authorizations;\r\n    mapping(bytes32 => bytes32[]) public dataAuthorizations;\r\n    mapping(address => bytes32[]) public granteeAuthorizations;\r\n    \r\n    event AuthorizationGranted(\r\n        bytes32 indexed authId,\r\n        bytes32 indexed dataId,\r\n        address indexed grantor,\r\n        address grantee,\r\n        string purpose,\r\n        uint256 expirationTime\r\n    );\r\n    \r\n    event AuthorizationRevoked(\r\n        bytes32 indexed authId,\r\n        bytes32 indexed dataId,\r\n        address indexed grantor\r\n    );\r\n    \r\n    constructor(address _ownershipContractAddress) {\r\n        ownershipContract = OwnershipRegistrationContract(_ownershipContractAddress);\r\n    }\r\n    \r\n    function grantProcessingRight(\r\n        bytes32 _dataId,\r\n        address _grantee,\r\n        uint256 _duration,\r\n        string memory _purpose,\r\n        string memory _scope,\r\n        string memory _constraints\r\n    ) external returns (bytes32) {\r\n        require(\r\n            ownershipContract.verifyOwnership(_dataId, msg.sender),\r\n            \"Not data owner\"\r\n        );\r\n        require(_grantee != address(0), \"Invalid grantee\");\r\n        require(_duration > 0, \"Invalid duration\");\r\n        \r\n        bytes32 authId = keccak256(\r\n            abi.encodePacked(_dataId, _grantee, block.timestamp, msg.sender)\r\n        );\r\n        \r\n        Authorization memory newAuth = Authorization({\r\n            authId: authId,\r\n            dataId: _dataId,\r\n            grantor: msg.sender,\r\n            grantee: _grantee,\r\n            grantTime: block.timestamp,\r\n            expirationTime: block.timestamp + _duration,\r\n            purpose: _purpose,\r\n            scope: _scope,\r\n            constraints: _constraints,\r\n            isValid: true\r\n        });\r\n        \r\n        authorizations[authId] = newAuth;\r\n        dataAuthorizations[_dataId].push(authId);\r\n        granteeAuthorizations[_grantee].push(authId);\r\n        \r\n        emit AuthorizationGranted(\r\n            authId,\r\n            _dataId,\r\n            msg.sender,\r\n            _grantee,\r\n            _purpose,\r\n            newAuth.expirationTime\r\n        );\r\n        \r\n        return authId;\r\n    }\r\n    \r\n    function revokeAuthorization(bytes32 _authId) external {\r\n        require(authorizations[_authId].isValid, \"Authorization not valid\");\r\n        require(\r\n            authorizations[_authId].grantor == msg.sender,\r\n            \"Not authorization grantor\"\r\n        );\r\n        \r\n        authorizations[_authId].isValid = false;\r\n        \r\n        emit AuthorizationRevoked(\r\n            _authId,\r\n            authorizations[_authId].dataId,\r\n            msg.sender\r\n        );\r\n    }\r\n    \r\n    function verifyAuthorization(\r\n        bytes32 _dataId,\r\n        address _grantee\r\n    ) external view returns (bool) {\r\n        bytes32[] memory auths = dataAuthorizations[_dataId];\r\n        \r\n        for (uint i = 0; i < auths.length; i++) {\r\n            Authorization memory auth = authorizations[auths[i]];\r\n            if (auth.grantee == _grantee && \r\n                auth.isValid && \r\n                auth.expirationTime > block.timestamp) {\r\n                return true;\r\n            }\r\n        }\r\n        return false;\r\n    }\r\n    \r\n    function getActiveAuthorizations(bytes32 _dataId)\r\n        external\r\n        view\r\n        returns (Authorization[] memory)\r\n    {\r\n        bytes32[] memory authIds = dataAuthorizations[_dataId];\r\n        uint activeCount = 0;\r\n        \r\n        for (uint i = 0; i < authIds.length; i++) {\r\n            if (authorizations[authIds[i]].isValid && \r\n                authorizations[authIds[i]].expirationTime > block.timestamp) {\r\n                activeCount++;\r\n            }\r\n        }\r\n        \r\n        Authorization[] memory activeAuths = new Authorization[](activeCount);\r\n        uint currentIndex = 0;\r\n        \r\n        for (uint i = 0; i < authIds.length; i++) {\r\n            Authorization memory auth = authorizations[authIds[i]];\r\n            if (auth.isValid && auth.expirationTime > block.timestamp) {\r\n                activeAuths[currentIndex] = auth;\r\n                currentIndex++;\r\n            }\r\n        }\r\n        \r\n        return activeAuths;\r\n    }\r\n}",
  "sourcePath": "D:\\\\\\\\blockchain-test\\contracts\\ProcessingRightGrantingContract.sol",
  "compiler": {
    "name": "solc",
    "version": "0.8.19+commit.7dd6d404.Emscripten.clang"
  },
  "schemaVersion": "3.4.16",
  "updatedAt": "2025-11-17T02:11:11.319Z",
  "networkType": "ethereum",
  "devdoc": {
    "kind": "dev",
    "methods": {},
    "version": 1
  },
  "userdoc": {
    "kind": "user",
    "methods": {},
    "version": 1
  }
}