{
  "contractName": "ProductTradingContract",
  "abi": [
    {
      "inputs": [
        {
          "internalType": "address",
          "name": "_ownershipContract",
          "type": "address"
        },
        {
          "internalType": "address",
          "name": "_authContract",
          "type": "address"
        }
      ],
      "stateMutability": "nonpayable",
      "type": "constructor"
    },
    {
      "anonymous": false,
      "inputs": [
        {
          "indexed": true,
          "internalType": "bytes32",
          "name": "productId",
          "type": "bytes32"
        },
        {
          "indexed": true,
          "internalType": "bytes32",
          "name": "originalDataId",
          "type": "bytes32"
        },
        {
          "indexed": true,
          "internalType": "address",
          "name": "creator",
          "type": "address"
        },
        {
          "indexed": false,
          "internalType": "string",
          "name": "productMetadata",
          "type": "string"
        },
        {
          "indexed": false,
          "internalType": "uint256",
          "name": "creationTime",
          "type": "uint256"
        }
      ],
      "name": "ProductCreated",
      "type": "event"
    },
    {
      "anonymous": false,
      "inputs": [
        {
          "indexed": true,
          "internalType": "bytes32",
          "name": "productId",
          "type": "bytes32"
        },
        {
          "indexed": true,
          "internalType": "address",
          "name": "seller",
          "type": "address"
        },
        {
          "indexed": false,
          "internalType": "uint256",
          "name": "price",
          "type": "uint256"
        }
      ],
      "name": "ProductListed",
      "type": "event"
    },
    {
      "anonymous": false,
      "inputs": [
        {
          "indexed": true,
          "internalType": "bytes32",
          "name": "productId",
          "type": "bytes32"
        },
        {
          "indexed": true,
          "internalType": "address",
          "name": "seller",
          "type": "address"
        },
        {
          "indexed": true,
          "internalType": "address",
          "name": "buyer",
          "type": "address"
        },
        {
          "indexed": false,
          "internalType": "uint256",
          "name": "price",
          "type": "uint256"
        },
        {
          "indexed": false,
          "internalType": "bytes32",
          "name": "transactionId",
          "type": "bytes32"
        }
      ],
      "name": "ProductSold",
      "type": "event"
    },
    {
      "inputs": [],
      "name": "authContract",
      "outputs": [
        {
          "internalType": "contract ProcessingRightGrantingContract",
          "name": "",
          "type": "address"
        }
      ],
      "stateMutability": "view",
      "type": "function",
      "constant": true
    },
    {
      "inputs": [
        {
          "internalType": "bytes32",
          "name": "",
          "type": "bytes32"
        }
      ],
      "name": "dataProducts",
      "outputs": [
        {
          "internalType": "bytes32",
          "name": "productId",
          "type": "bytes32"
        },
        {
          "internalType": "bytes32",
          "name": "originalDataId",
          "type": "bytes32"
        },
        {
          "internalType": "address",
          "name": "creator",
          "type": "address"
        },
        {
          "internalType": "string",
          "name": "productMetadata",
          "type": "string"
        },
        {
          "internalType": "uint256",
          "name": "creationTime",
          "type": "uint256"
        },
        {
          "internalType": "address",
          "name": "currentOwner",
          "type": "address"
        },
        {
          "internalType": "uint256",
          "name": "price",
          "type": "uint256"
        },
        {
          "internalType": "bool",
          "name": "isListed",
          "type": "bool"
        }
      ],
      "stateMutability": "view",
      "type": "function",
      "constant": true
    },
    {
      "inputs": [],
      "name": "ownershipContract",
      "outputs": [
        {
          "internalType": "contract OwnershipRegistrationContract",
          "name": "",
          "type": "address"
        }
      ],
      "stateMutability": "view",
      "type": "function",
      "constant": true
    },
    {
      "inputs": [
        {
          "internalType": "bytes32",
          "name": "",
          "type": "bytes32"
        }
      ],
      "name": "transactions",
      "outputs": [
        {
          "internalType": "bytes32",
          "name": "txId",
          "type": "bytes32"
        },
        {
          "internalType": "bytes32",
          "name": "productId",
          "type": "bytes32"
        },
        {
          "internalType": "address",
          "name": "seller",
          "type": "address"
        },
        {
          "internalType": "address",
          "name": "buyer",
          "type": "address"
        },
        {
          "internalType": "uint256",
          "name": "price",
          "type": "uint256"
        },
        {
          "internalType": "uint256",
          "name": "transactionTime",
          "type": "uint256"
        }
      ],
      "stateMutability": "view",
      "type": "function",
      "constant": true
    },
    {
      "inputs": [
        {
          "internalType": "address",
          "name": "",
          "type": "address"
        },
        {
          "internalType": "uint256",
          "name": "",
          "type": "uint256"
        }
      ],
      "name": "userTransactions",
      "outputs": [
        {
          "internalType": "bytes32",
          "name": "",
          "type": "bytes32"
        }
      ],
      "stateMutability": "view",
      "type": "function",
      "constant": true
    },
    {
      "inputs": [
        {
          "internalType": "bytes32",
          "name": "_originalDataId",
          "type": "bytes32"
        },
        {
          "internalType": "string",
          "name": "_productMetadata",
          "type": "string"
        },
        {
          "internalType": "bytes32[]",
          "name": "_derivativeChain",
          "type": "bytes32[]"
        }
      ],
      "name": "createDataProduct",
      "outputs": [
        {
          "internalType": "bytes32",
          "name": "",
          "type": "bytes32"
        }
      ],
      "stateMutability": "nonpayable",
      "type": "function"
    },
    {
      "inputs": [
        {
          "internalType": "bytes32",
          "name": "_productId",
          "type": "bytes32"
        },
        {
          "internalType": "uint256",
          "name": "_price",
          "type": "uint256"
        }
      ],
      "name": "listProductForSale",
      "outputs": [],
      "stateMutability": "nonpayable",
      "type": "function"
    },
    {
      "inputs": [
        {
          "internalType": "bytes32",
          "name": "_productId",
          "type": "bytes32"
        }
      ],
      "name": "purchaseProduct",
      "outputs": [],
      "stateMutability": "payable",
      "type": "function",
      "payable": true
    },
    {
      "inputs": [
        {
          "internalType": "bytes32",
          "name": "",
          "type": "bytes32"
        }
      ],
      "name": "getProductTransactionHistory",
      "outputs": [
        {
          "components": [
            {
              "internalType": "bytes32",
              "name": "txId",
              "type": "bytes32"
            },
            {
              "internalType": "bytes32",
              "name": "productId",
              "type": "bytes32"
            },
            {
              "internalType": "address",
              "name": "seller",
              "type": "address"
            },
            {
              "internalType": "address",
              "name": "buyer",
              "type": "address"
            },
            {
              "internalType": "uint256",
              "name": "price",
              "type": "uint256"
            },
            {
              "internalType": "uint256",
              "name": "transactionTime",
              "type": "uint256"
            }
          ],
          "internalType": "struct ProductTradingContract.Transaction[]",
          "name": "",
          "type": "tuple[]"
        }
      ],
      "stateMutability": "pure",
      "type": "function",
      "constant": true
    },
    {
      "inputs": [
        {
          "internalType": "address",
          "name": "",
          "type": "address"
        }
      ],
      "name": "getUserProducts",
      "outputs": [
        {
          "components": [
            {
              "internalType": "bytes32",
              "name": "productId",
              "type": "bytes32"
            },
            {
              "internalType": "bytes32",
              "name": "originalDataId",
              "type": "bytes32"
            },
            {
              "internalType": "bytes32[]",
              "name": "derivativeChain",
              "type": "bytes32[]"
            },
            {
              "internalType": "address",
              "name": "creator",
              "type": "address"
            },
            {
              "internalType": "string",
              "name": "productMetadata",
              "type": "string"
            },
            {
              "internalType": "uint256",
              "name": "creationTime",
              "type": "uint256"
            },
            {
              "internalType": "address",
              "name": "currentOwner",
              "type": "address"
            },
            {
              "internalType": "uint256",
              "name": "price",
              "type": "uint256"
            },
            {
              "internalType": "bool",
              "name": "isListed",
              "type": "bool"
            }
          ],
          "internalType": "struct ProductTradingContract.DataProduct[]",
          "name": "",
          "type": "tuple[]"
        }
      ],
      "stateMutability": "pure",
      "type": "function",
      "constant": true
    }
  ],
  "bytecode": "0x60806040523480156200001157600080fd5b50604051620018b7380380620018b7833981016040819052620000349162000083565b600080546001600160a01b039384166001600160a01b03199182161790915560018054929093169116179055620000bb565b80516001600160a01b03811681146200007e57600080fd5b919050565b600080604083850312156200009757600080fd5b620000a28362000066565b9150620000b26020840162000066565b90509250929050565b6117ec80620000cb6000396000f3fe6080604052600436106100915760003560e01c80638b71a91c116100595780638b71a91c146101f0578063b62367c91461021d578063b842ec441461023d578063d18f588c1461025d578063fee7f53b1461027057600080fd5b8063080fd61c146100965780633763dd05146100d35780635ec315cb146100f5578063642f2eaf1461012357806377986002146101bc575b600080fd5b3480156100a257600080fd5b506000546100b6906001600160a01b031681565b6040516001600160a01b0390911681526020015b60405180910390f35b3480156100df57600080fd5b506100f36100ee366004611117565b610298565b005b34801561010157600080fd5b50610115610110366004611200565b6103af565b6040519081526020016100ca565b34801561012f57600080fd5b5061018261013e3660046112c0565b6003602081905260009182526040909120805460018201546002830154938301546004840154600590940154929491936001600160a01b0392831693929091169186565b6040805196875260208701959095526001600160a01b039384169486019490945291166060840152608083015260a082015260c0016100ca565b3480156101c857600080fd5b506101dc6101d73660046112c0565b610673565b6040516100ca989796959493929190611329565b3480156101fc57600080fd5b5061021061020b3660046112c0565b610756565b6040516100ca9190611387565b34801561022957600080fd5b506001546100b6906001600160a01b031681565b34801561024957600080fd5b50610115610258366004611429565b6107b7565b6100f361026b3660046112c0565b6107e8565b34801561027c57600080fd5b5061028b61020b366004611453565b6040516100ca91906114b0565b6000828152600260205260409020600601546001600160a01b031633146102fa5760405162461bcd60e51b81526020600482015260116024820152702737ba10383937b23ab1ba1037bbb732b960791b60448201526064015b60405180910390fd5b6000811161034a5760405162461bcd60e51b815260206004820152601c60248201527f5072696365206d7573742062652067726561746572207468616e20300000000060448201526064016102f1565b6000828152600260205260409081902060078101839055600801805460ff1916600117905551339083907fbd59e176e85b1b428f238de685b88f256af9c3c4ce41f0f6b60f061892ffe0ad906103a39085815260200190565b60405180910390a35050565b60008054604051634d41f49b60e01b8152600481018690523360248201526001600160a01b0390911690634d41f49b90604401602060405180830381865afa1580156103ff573d6000803e3d6000fd5b505050506040513d601f19601f8201168201806040525081019061042391906115a5565b8061049c5750600154604051630553291960e21b8152600481018690523360248201526001600160a01b039091169063154ca46490604401602060405180830381865afa158015610478573d6000803e3d6000fd5b505050506040513d601f19601f8201168201806040525081019061049c91906115a5565b6104f75760405162461bcd60e51b815260206004820152602660248201527f4e6f2072696768747320746f20637265617465206465726976617469766520706044820152651c9bd91d58dd60d21b60648201526084016102f1565b60008484423360405160200161051094939291906115c7565b60408051601f198184030181528282528051602091820120610120840183528084528382018981528484018881523360608701819052608087018b90524260a088015260c0870152600060e087018190526101008701819052838152600280865295902086518155915160018301555180519296508594919361059993928501929101906110b7565b5060608201516003820180546001600160a01b0319166001600160a01b03909216919091179055608082015160048201906105d49082611697565b5060a0820151600582015560c08201516006820180546001600160a01b0319166001600160a01b0390921691909117905560e08201516007820155610100909101516008909101805460ff19169115159190911790556040513390879084907f4c73e22ee1fe2ff576ff666bd5651b18e7157372e355d56833750402e74c6a4d90610662908a904290611757565b60405180910390a450949350505050565b6002602052600090815260409020805460018201546003830154600484018054939492936001600160a01b0390921692916106ad9061160e565b80601f01602080910402602001604051908101604052809291908181526020018280546106d99061160e565b80156107265780601f106106fb57610100808354040283529160200191610726565b820191906000526020600020905b81548152906001019060200180831161070957829003601f168201915b50505050600583015460068401546007850154600890950154939491936001600160a01b03909116925060ff1688565b604080516000808252602082019092526060916107b0565b6040805160c08101825260008082526020808301829052928201819052606082018190526080820181905260a0820152825260001990920191018161076e5790505b5092915050565b600460205281600052604060002081815481106107d357600080fd5b90600052602060002001600091509150505481565b6000818152600260205260409020600881015460ff1661084a5760405162461bcd60e51b815260206004820152601b60248201527f50726f64756374206e6f74206c697374656420666f722073616c65000000000060448201526064016102f1565b6006810154336001600160a01b03909116036108a15760405162461bcd60e51b815260206004820152601660248201527510d85b9b9bdd08189d5e481bdddb881c1c9bd91d58dd60521b60448201526064016102f1565b806007015434146108f45760405162461bcd60e51b815260206004820152601860248201527f496e636f7272656374207061796d656e7420616d6f756e74000000000000000060448201526064016102f1565b6108fd82610b6e565b6109405760405162461bcd60e51b815260206004820152601460248201527324b73b30b634b2103934b3b43a399031b430b4b760611b60448201526064016102f1565b600681015460408051602081018590526bffffffffffffffffffffffff193360601b16918101919091524260548201523460748201526001600160a01b039091169060009060940160408051601f19818403018152828252805160209182012060c0840183528084528382018881526006880180546001600160a01b0390811687870190815233606089018181523460808b018181524260a08d0190815260008a81526003808d528d82208f5181559a5160018c810191909155975160028c018054918b166001600160a01b03199283161790559551908b018054918a1691871691909117905591516004808b01919091559051600590990198909855838152968952898720805480860182559088528988200188905585548516875289872080549485018155875297862090920186905583549091161790915560088901805460ff191690556007890182905593519195509286169282156108fc02929190818181858888f19350505050158015610abd573d6000803e3d6000fd5b50604080513481526020810184905233916001600160a01b0386169188917ff1fb5dd15e61530e7973de2d92c6a1f055e5b74e607a398353f4afd459915b06910160405180910390a45050505050565b6040805161012081018252600080825260208083018290526060938301849052838301829052608083019390935260a0820181905260c0820181905260e082018190526101008201528252600019909201910181610b0d5790505092915050565b60008181526002602081815260408084208151610120810183528154815260018201548185015293810180548351818602810186018552818152879695939486019390929190830182828015610be357602002820191906000526020600020905b815481526020019060010190808311610bcf575b505050918352505060038201546001600160a01b03166020820152600482018054604090920191610c139061160e565b80601f0160208091040260200160405190810160405280929190818152602001828054610c3f9061160e565b8015610c8c5780601f10610c6157610100808354040283529160200191610c8c565b820191906000526020600020905b815481529060010190602001808311610c6f57829003601f168201915b5050509183525050600582015460208083019190915260068301546001600160a01b03908116604080850191909152600785015460608086019190915260089095015460ff1615156080909401939093526000805492860151948601519351634d41f49b60e01b815295965094911692634d41f49b92610d20926004019182526001600160a01b0316602082015260400190565b602060405180830381865afa158015610d3d573d6000803e3d6000fd5b505050506040513d601f19601f82011682018060405250810190610d6191906115a5565b80610de7575060015460208301516060840151604051630553291960e21b815260048101929092526001600160a01b0390811660248301529091169063154ca46490604401602060405180830381865afa158015610dc3573d6000803e3d6000fd5b505050506040513d601f19601f82011682018060405250810190610de791906115a5565b905060005b8260400151518110156110af57600083604001518281518110610e1157610e11611779565b6020026020010151905060006002600083815260200190815260200160002060405180610120016040529081600082015481526020016001820154815260200160028201805480602002602001604051908101604052809291908181526020018280548015610e9f57602002820191906000526020600020905b815481526020019060010190808311610e8b575b505050918352505060038201546001600160a01b03166020820152600482018054604090920191610ecf9061160e565b80601f0160208091040260200160405190810160405280929190818152602001828054610efb9061160e565b8015610f485780601f10610f1d57610100808354040283529160200191610f48565b820191906000526020600020905b815481529060010190602001808311610f2b57829003601f168201915b50505091835250506005820154602082015260068201546001600160a01b031660408201526007820154606082015260089091015460ff1615156080909101529050838015611098575060005460208201516060830151604051634d41f49b60e01b815260048101929092526001600160a01b03908116602483015290911690634d41f49b90604401602060405180830381865afa158015610fee573d6000803e3d6000fd5b505050506040513d601f19601f8201168201806040525081019061101291906115a5565b80611098575060015460208201516060830151604051630553291960e21b815260048101929092526001600160a01b0390811660248301529091169063154ca46490604401602060405180830381865afa158015611074573d6000803e3d6000fd5b505050506040513d601f19601f8201168201806040525081019061109891906115a5565b9350505080806110a79061178f565b915050610dec565b509392505050565b8280548282559060005260206000209081019282156110f2579160200282015b828111156110f25782518255916020019190600101906110d7565b506110fe929150611102565b5090565b5b808211156110fe5760008155600101611103565b6000806040838503121561112a57600080fd5b50508035926020909101359150565b634e487b7160e01b600052604160045260246000fd5b604051601f8201601f1916810167ffffffffffffffff8111828210171561117857611178611139565b604052919050565b600082601f83011261119157600080fd5b8135602067ffffffffffffffff8211156111ad576111ad611139565b8160051b6111bc82820161114f565b92835284810182019282810190878511156111d657600080fd5b83870192505b848310156111f5578235825291830191908301906111dc565b979650505050505050565b60008060006060848603121561121557600080fd5b8335925060208085013567ffffffffffffffff8082111561123557600080fd5b818701915087601f83011261124957600080fd5b81358181111561125b5761125b611139565b61126d601f8201601f1916850161114f565b818152898583860101111561128157600080fd5b8185850186830137600091810190940152919350604086013591808311156112a857600080fd5b50506112b686828701611180565b9150509250925092565b6000602082840312156112d257600080fd5b5035919050565b60005b838110156112f45781810151838201526020016112dc565b50506000910152565b600081518084526113158160208601602086016112d9565b601f01601f19169290920160200192915050565b888152602081018890526001600160a01b0387811660408301526101006060830181905260009161135c8483018a6112fd565b60808501989098529590951660a08301525060c0810192909252151560e09091015250949350505050565b602080825282518282018190526000919060409081850190868401855b82811015611400578151805185528681015187860152858101516001600160a01b0390811687870152606080830151909116908601526080808201519086015260a0908101519085015260c090930192908501906001016113a4565b5091979650505050505050565b80356001600160a01b038116811461142457600080fd5b919050565b6000806040838503121561143c57600080fd5b6114458361140d565b946020939093013593505050565b60006020828403121561146557600080fd5b61146e8261140d565b9392505050565b600081518084526020808501945080840160005b838110156114a557815187529582019590820190600101611489565b509495945050505050565b60006020808301818452808551808352604092508286019150828160051b87010184880160005b8381101561159757603f19898403018552815161012081518552888201518986015287820151818987015261150e82870182611475565b91505060608083015161152b828801826001600160a01b03169052565b50506080808301518683038288015261154483826112fd565b9250505060a080830151818701525060c08083015161156d828801826001600160a01b03169052565b505060e08281015190860152610100918201511515919094015293860193908601906001016114d7565b509098975050505050505050565b6000602082840312156115b757600080fd5b8151801515811461146e57600080fd5b848152600084516115df8160208501602089016112d9565b602092019182019390935260609190911b6bffffffffffffffffffffffff191660408201526054019392505050565b600181811c9082168061162257607f821691505b60208210810361164257634e487b7160e01b600052602260045260246000fd5b50919050565b601f82111561169257600081815260208120601f850160051c8101602086101561166f5750805b601f850160051c820191505b8181101561168e5782815560010161167b565b5050505b505050565b815167ffffffffffffffff8111156116b1576116b1611139565b6116c5816116bf845461160e565b84611648565b602080601f8311600181146116fa57600084156116e25750858301515b600019600386901b1c1916600185901b17855561168e565b600085815260208120601f198616915b828110156117295788860151825594840194600190910190840161170a565b50858210156117475787850151600019600388901b60f8161c191681555b5050505050600190811b01905550565b60408152600061176a60408301856112fd565b90508260208301529392505050565b634e487b7160e01b600052603260045260246000fd5b6000600182016117af57634e487b7160e01b600052601160045260246000fd5b506001019056fea2646970667358221220952179b4dab77afe571f96c648bdeeac135291a36adf4e283d8fbd3f5227921d64736f6c63430008130033",
  "immutableReferences": {},
  "source": "// SPDX-License-Identifier: MIT\r\npragma solidity ^0.8.19;\r\n\r\nimport \"./OwnershipRegistrationContract.sol\";\r\nimport \"./ProcessingRightGrantingContract.sol\";\r\n\r\ncontract ProductTradingContract {\r\n    struct DataProduct {\r\n        bytes32 productId;\r\n        bytes32 originalDataId;\r\n        bytes32[] derivativeChain;\r\n        address creator;\r\n        string productMetadata;\r\n        uint256 creationTime;\r\n        address currentOwner;\r\n        uint256 price;\r\n        bool isListed;\r\n    }\r\n    \r\n    struct Transaction {\r\n        bytes32 txId;\r\n        bytes32 productId;\r\n        address seller;\r\n        address buyer;\r\n        uint256 price;\r\n        uint256 transactionTime;\r\n    }\r\n    \r\n    OwnershipRegistrationContract public ownershipContract;\r\n    ProcessingRightGrantingContract public authContract;\r\n    \r\n    mapping(bytes32 => DataProduct) public dataProducts;\r\n    mapping(bytes32 => Transaction) public transactions;\r\n    mapping(address => bytes32[]) public userTransactions;\r\n    \r\n    event ProductCreated(\r\n        bytes32 indexed productId,\r\n        bytes32 indexed originalDataId,\r\n        address indexed creator,\r\n        string productMetadata,\r\n        uint256 creationTime\r\n    );\r\n    \r\n    event ProductListed(\r\n        bytes32 indexed productId,\r\n        address indexed seller,\r\n        uint256 price\r\n    );\r\n    \r\n    event ProductSold(\r\n        bytes32 indexed productId,\r\n        address indexed seller,\r\n        address indexed buyer,\r\n        uint256 price,\r\n        bytes32 transactionId\r\n    );\r\n    \r\n    constructor(address _ownershipContract, address _authContract) {\r\n        ownershipContract = OwnershipRegistrationContract(_ownershipContract);\r\n        authContract = ProcessingRightGrantingContract(_authContract);\r\n    }\r\n    \r\n    function createDataProduct(\r\n        bytes32 _originalDataId,\r\n        string memory _productMetadata,\r\n        bytes32[] memory _derivativeChain\r\n    ) external returns (bytes32) {\r\n        require(\r\n            ownershipContract.verifyOwnership(_originalDataId, msg.sender) ||\r\n            authContract.verifyAuthorization(_originalDataId, msg.sender),\r\n            \"No rights to create derivative product\"\r\n        );\r\n        \r\n        bytes32 productId = keccak256(\r\n            abi.encodePacked(_originalDataId, _productMetadata, block.timestamp, msg.sender)\r\n        );\r\n        \r\n        DataProduct memory newProduct = DataProduct({\r\n            productId: productId,\r\n            originalDataId: _originalDataId,\r\n            derivativeChain: _derivativeChain,\r\n            creator: msg.sender,\r\n            productMetadata: _productMetadata,\r\n            creationTime: block.timestamp,\r\n            currentOwner: msg.sender,\r\n            price: 0,\r\n            isListed: false\r\n        });\r\n        \r\n        dataProducts[productId] = newProduct;\r\n        \r\n        emit ProductCreated(\r\n            productId,\r\n            _originalDataId,\r\n            msg.sender,\r\n            _productMetadata,\r\n            block.timestamp\r\n        );\r\n        \r\n        return productId;\r\n    }\r\n    \r\n    function listProductForSale(bytes32 _productId, uint256 _price) external {\r\n        require(dataProducts[_productId].currentOwner == msg.sender, \"Not product owner\");\r\n        require(_price > 0, \"Price must be greater than 0\");\r\n        \r\n        dataProducts[_productId].price = _price;\r\n        dataProducts[_productId].isListed = true;\r\n        \r\n        emit ProductListed(_productId, msg.sender, _price);\r\n    }\r\n    \r\n    function purchaseProduct(bytes32 _productId) external payable {\r\n        DataProduct storage product = dataProducts[_productId];\r\n        \r\n        require(product.isListed, \"Product not listed for sale\");\r\n        require(product.currentOwner != msg.sender, \"Cannot buy own product\");\r\n        require(msg.value == product.price, \"Incorrect payment amount\");\r\n        \r\n        // Validate rights chain\r\n        require(validateRightsChain(_productId), \"Invalid rights chain\");\r\n        \r\n        address payable seller = payable(product.currentOwner);\r\n        \r\n        // Create transaction record\r\n        bytes32 txId = keccak256(\r\n            abi.encodePacked(_productId, msg.sender, block.timestamp, msg.value)\r\n        );\r\n        \r\n        Transaction memory newTransaction = Transaction({\r\n            txId: txId,\r\n            productId: _productId,\r\n            seller: product.currentOwner,\r\n            buyer: msg.sender,\r\n            price: msg.value,\r\n            transactionTime: block.timestamp\r\n        });\r\n        \r\n        transactions[txId] = newTransaction;\r\n        userTransactions[msg.sender].push(txId);\r\n        userTransactions[product.currentOwner].push(txId);\r\n        \r\n        // Transfer ownership\r\n        product.currentOwner = msg.sender;\r\n        product.isListed = false;\r\n        product.price = 0;\r\n        \r\n        // Transfer funds\r\n        seller.transfer(msg.value);\r\n        \r\n        emit ProductSold(_productId, seller, msg.sender, msg.value, txId);\r\n    }\r\n    \r\n    function validateRightsChain(bytes32 _productId) \r\n        internal \r\n        view \r\n        returns (bool) \r\n    {\r\n        DataProduct memory product = dataProducts[_productId];\r\n        \r\n        // Check if creator has rights to original data\r\n        bool hasRights = ownershipContract.verifyOwnership(\r\n            product.originalDataId, \r\n            product.creator\r\n        ) || authContract.verifyAuthorization(\r\n            product.originalDataId, \r\n            product.creator\r\n        );\r\n        \r\n        // Validate derivative chain if exists\r\n        for (uint i = 0; i < product.derivativeChain.length; i++) {\r\n            bytes32 derivativeId = product.derivativeChain[i];\r\n            DataProduct memory derivative = dataProducts[derivativeId];\r\n            \r\n            hasRights = hasRights && (\r\n                ownershipContract.verifyOwnership(\r\n                    derivative.originalDataId, \r\n                    derivative.creator\r\n                ) || authContract.verifyAuthorization(\r\n                    derivative.originalDataId, \r\n                    derivative.creator\r\n                )\r\n            );\r\n        }\r\n        \r\n        return hasRights;\r\n    }\r\n    \r\n    //  pure \r\n    function getProductTransactionHistory(bytes32 /*_productId*/)\r\n        external\r\n        pure\r\n        returns (Transaction[] memory)\r\n    {\r\n        return new Transaction[](0);\r\n    }\r\n\r\n    function getUserProducts(address /*_user*/)\r\n        external\r\n        pure\r\n        returns (DataProduct[] memory)\r\n    {\r\n        return new DataProduct[](0);\r\n    }\r\n}",
  "sourcePath": "D:\\\\\\\\blockchain-test\\contracts\\ProductTradingContract.sol",
  "compiler": {
    "name": "solc",
    "version": "0.8.19+commit.7dd6d404.Emscripten.clang"
  },
  "schemaVersion": "3.4.16",
  "updatedAt": "2025-11-17T02:11:11.327Z",
  "networkType": "ethereum",
  "devdoc": {
    "kind": "dev",
    "methods": {},
    "version": 1
  },
  "userdoc": {
    "kind": "user",
    "methods": {},
    "version": 1
  }
}